{
  "contractName": "Election",
  "abi": [
    {
      "inputs": [],
      "stateMutability": "nonpayable",
      "type": "constructor"
    },
    {
      "anonymous": false,
      "inputs": [
        {
          "indexed": false,
          "internalType": "uint256",
          "name": "electionId",
          "type": "uint256"
        },
        {
          "indexed": false,
          "internalType": "uint256",
          "name": "candidateId",
          "type": "uint256"
        },
        {
          "indexed": false,
          "internalType": "string",
          "name": "name",
          "type": "string"
        }
      ],
      "name": "CandidateAdded",
      "type": "event"
    },
    {
      "anonymous": false,
      "inputs": [
        {
          "indexed": false,
          "internalType": "uint256",
          "name": "electionId",
          "type": "uint256"
        },
        {
          "indexed": false,
          "internalType": "string",
          "name": "name",
          "type": "string"
        },
        {
          "indexed": false,
          "internalType": "uint256",
          "name": "startTime",
          "type": "uint256"
        },
        {
          "indexed": false,
          "internalType": "uint256",
          "name": "endTime",
          "type": "uint256"
        }
      ],
      "name": "ElectionCreated",
      "type": "event"
    },
    {
      "anonymous": false,
      "inputs": [
        {
          "indexed": false,
          "internalType": "uint256",
          "name": "electionId",
          "type": "uint256"
        },
        {
          "indexed": false,
          "internalType": "uint256",
          "name": "candidateId",
          "type": "uint256"
        },
        {
          "indexed": false,
          "internalType": "address",
          "name": "voter",
          "type": "address"
        }
      ],
      "name": "VoteCast",
      "type": "event"
    },
    {
      "anonymous": false,
      "inputs": [
        {
          "indexed": false,
          "internalType": "address",
          "name": "voterAddress",
          "type": "address"
        },
        {
          "indexed": false,
          "internalType": "string",
          "name": "voterId",
          "type": "string"
        }
      ],
      "name": "VoterRegistered",
      "type": "event"
    },
    {
      "anonymous": false,
      "inputs": [
        {
          "indexed": false,
          "internalType": "string",
          "name": "voterId",
          "type": "string"
        }
      ],
      "name": "VoterRemoved",
      "type": "event"
    },
    {
      "inputs": [],
      "name": "admin",
      "outputs": [
        {
          "internalType": "address",
          "name": "",
          "type": "address"
        }
      ],
      "stateMutability": "view",
      "type": "function"
    },
    {
      "inputs": [
        {
          "internalType": "uint256",
          "name": "",
          "type": "uint256"
        },
        {
          "internalType": "uint256",
          "name": "",
          "type": "uint256"
        }
      ],
      "name": "candidates",
      "outputs": [
        {
          "internalType": "uint256",
          "name": "id",
          "type": "uint256"
        },
        {
          "internalType": "string",
          "name": "name",
          "type": "string"
        },
        {
          "internalType": "string",
          "name": "description",
          "type": "string"
        },
        {
          "internalType": "uint256",
          "name": "voteCount",
          "type": "uint256"
        }
      ],
      "stateMutability": "view",
      "type": "function"
    },
    {
      "inputs": [],
      "name": "electionCount",
      "outputs": [
        {
          "internalType": "uint256",
          "name": "",
          "type": "uint256"
        }
      ],
      "stateMutability": "view",
      "type": "function"
    },
    {
      "inputs": [
        {
          "internalType": "uint256",
          "name": "",
          "type": "uint256"
        }
      ],
      "name": "elections",
      "outputs": [
        {
          "internalType": "uint256",
          "name": "id",
          "type": "uint256"
        },
        {
          "internalType": "string",
          "name": "name",
          "type": "string"
        },
        {
          "internalType": "string",
          "name": "description",
          "type": "string"
        },
        {
          "internalType": "uint256",
          "name": "startTime",
          "type": "uint256"
        },
        {
          "internalType": "uint256",
          "name": "endTime",
          "type": "uint256"
        },
        {
          "internalType": "bool",
          "name": "isActive",
          "type": "bool"
        },
        {
          "internalType": "uint256",
          "name": "candidateCount",
          "type": "uint256"
        }
      ],
      "stateMutability": "view",
      "type": "function"
    },
    {
      "inputs": [
        {
          "internalType": "uint256",
          "name": "",
          "type": "uint256"
        },
        {
          "internalType": "address",
          "name": "",
          "type": "address"
        }
      ],
      "name": "hasVoted",
      "outputs": [
        {
          "internalType": "bool",
          "name": "",
          "type": "bool"
        }
      ],
      "stateMutability": "view",
      "type": "function"
    },
    {
      "inputs": [
        {
          "internalType": "uint256",
          "name": "",
          "type": "uint256"
        }
      ],
      "name": "voterList",
      "outputs": [
        {
          "internalType": "address",
          "name": "",
          "type": "address"
        }
      ],
      "stateMutability": "view",
      "type": "function"
    },
    {
      "inputs": [
        {
          "internalType": "address",
          "name": "",
          "type": "address"
        }
      ],
      "name": "voters",
      "outputs": [
        {
          "internalType": "string",
          "name": "name",
          "type": "string"
        },
        {
          "internalType": "string",
          "name": "voterId",
          "type": "string"
        },
        {
          "internalType": "string",
          "name": "email",
          "type": "string"
        },
        {
          "internalType": "bool",
          "name": "isRegistered",
          "type": "bool"
        },
        {
          "internalType": "address",
          "name": "voterAddress",
          "type": "address"
        }
      ],
      "stateMutability": "view",
      "type": "function"
    },
    {
      "inputs": [
        {
          "internalType": "string",
          "name": "_name",
          "type": "string"
        },
        {
          "internalType": "string",
          "name": "_description",
          "type": "string"
        },
        {
          "internalType": "uint256",
          "name": "_startTime",
          "type": "uint256"
        },
        {
          "internalType": "uint256",
          "name": "_endTime",
          "type": "uint256"
        }
      ],
      "name": "createElection",
      "outputs": [],
      "stateMutability": "nonpayable",
      "type": "function"
    },
    {
      "inputs": [
        {
          "internalType": "uint256",
          "name": "_electionId",
          "type": "uint256"
        },
        {
          "internalType": "string",
          "name": "_name",
          "type": "string"
        },
        {
          "internalType": "string",
          "name": "_description",
          "type": "string"
        }
      ],
      "name": "addCandidate",
      "outputs": [],
      "stateMutability": "nonpayable",
      "type": "function"
    },
    {
      "inputs": [
        {
          "internalType": "string",
          "name": "_name",
          "type": "string"
        },
        {
          "internalType": "string",
          "name": "_voterId",
          "type": "string"
        },
        {
          "internalType": "string",
          "name": "_email",
          "type": "string"
        },
        {
          "internalType": "address",
          "name": "_voterAddress",
          "type": "address"
        }
      ],
      "name": "registerVoter",
      "outputs": [],
      "stateMutability": "nonpayable",
      "type": "function"
    },
    {
      "inputs": [
        {
          "internalType": "uint256",
          "name": "_electionId",
          "type": "uint256"
        },
        {
          "internalType": "uint256",
          "name": "_candidateId",
          "type": "uint256"
        }
      ],
      "name": "vote",
      "outputs": [],
      "stateMutability": "nonpayable",
      "type": "function"
    },
    {
      "inputs": [
        {
          "internalType": "uint256",
          "name": "_electionId",
          "type": "uint256"
        },
        {
          "internalType": "string",
          "name": "_name",
          "type": "string"
        },
        {
          "internalType": "string",
          "name": "_description",
          "type": "string"
        },
        {
          "internalType": "uint256",
          "name": "_startTime",
          "type": "uint256"
        },
        {
          "internalType": "uint256",
          "name": "_endTime",
          "type": "uint256"
        }
      ],
      "name": "modifyElection",
      "outputs": [],
      "stateMutability": "nonpayable",
      "type": "function"
    },
    {
      "inputs": [
        {
          "internalType": "uint256",
          "name": "_electionId",
          "type": "uint256"
        }
      ],
      "name": "deleteElection",
      "outputs": [],
      "stateMutability": "nonpayable",
      "type": "function"
    },
    {
      "inputs": [
        {
          "internalType": "uint256",
          "name": "_electionId",
          "type": "uint256"
        },
        {
          "internalType": "uint256",
          "name": "_candidateId",
          "type": "uint256"
        }
      ],
      "name": "deleteCandidate",
      "outputs": [],
      "stateMutability": "nonpayable",
      "type": "function"
    },
    {
      "inputs": [
        {
          "internalType": "address",
          "name": "_voterAddress",
          "type": "address"
        }
      ],
      "name": "deleteVoter",
      "outputs": [],
      "stateMutability": "nonpayable",
      "type": "function"
    },
    {
      "inputs": [],
      "name": "getAllVoters",
      "outputs": [
        {
          "internalType": "address[]",
          "name": "voterAddresses",
          "type": "address[]"
        },
        {
          "internalType": "string[]",
          "name": "names",
          "type": "string[]"
        },
        {
          "internalType": "string[]",
          "name": "voterIds",
          "type": "string[]"
        },
        {
          "internalType": "string[]",
          "name": "emails",
          "type": "string[]"
        },
        {
          "internalType": "bool[]",
          "name": "isRegistered",
          "type": "bool[]"
        }
      ],
      "stateMutability": "view",
      "type": "function"
    },
    {
      "inputs": [
        {
          "internalType": "uint256",
          "name": "_electionId",
          "type": "uint256"
        }
      ],
      "name": "getElection",
      "outputs": [
        {
          "internalType": "uint256",
          "name": "id",
          "type": "uint256"
        },
        {
          "internalType": "string",
          "name": "name",
          "type": "string"
        },
        {
          "internalType": "string",
          "name": "description",
          "type": "string"
        },
        {
          "internalType": "uint256",
          "name": "startTime",
          "type": "uint256"
        },
        {
          "internalType": "uint256",
          "name": "endTime",
          "type": "uint256"
        },
        {
          "internalType": "bool",
          "name": "isActive",
          "type": "bool"
        },
        {
          "internalType": "uint256",
          "name": "candidateCount",
          "type": "uint256"
        }
      ],
      "stateMutability": "view",
      "type": "function"
    },
    {
      "inputs": [
        {
          "internalType": "uint256",
          "name": "_electionId",
          "type": "uint256"
        },
        {
          "internalType": "uint256",
          "name": "_candidateId",
          "type": "uint256"
        }
      ],
      "name": "getCandidate",
      "outputs": [
        {
          "internalType": "uint256",
          "name": "id",
          "type": "uint256"
        },
        {
          "internalType": "string",
          "name": "name",
          "type": "string"
        },
        {
          "internalType": "string",
          "name": "description",
          "type": "string"
        },
        {
          "internalType": "uint256",
          "name": "voteCount",
          "type": "uint256"
        }
      ],
      "stateMutability": "view",
      "type": "function"
    },
    {
      "inputs": [
        {
          "internalType": "address",
          "name": "_voterAddress",
          "type": "address"
        }
      ],
      "name": "getVoter",
      "outputs": [
        {
          "internalType": "string",
          "name": "name",
          "type": "string"
        },
        {
          "internalType": "string",
          "name": "voterId",
          "type": "string"
        },
        {
          "internalType": "string",
          "name": "email",
          "type": "string"
        },
        {
          "internalType": "bool",
          "name": "isRegistered",
          "type": "bool"
        }
      ],
      "stateMutability": "view",
      "type": "function"
    },
    {
      "inputs": [
        {
          "internalType": "uint256",
          "name": "_electionId",
          "type": "uint256"
        },
        {
          "internalType": "address",
          "name": "_voterAddress",
          "type": "address"
        }
      ],
      "name": "checkVoterVoteStatus",
      "outputs": [
        {
          "internalType": "bool",
          "name": "",
          "type": "bool"
        }
      ],
      "stateMutability": "view",
      "type": "function"
    },
    {
      "inputs": [],
      "name": "getAllCandidates",
      "outputs": [
        {
          "internalType": "uint256[]",
          "name": "electionIds",
          "type": "uint256[]"
        },
        {
          "internalType": "uint256[]",
          "name": "candidateIds",
          "type": "uint256[]"
        },
        {
          "internalType": "string[]",
          "name": "names",
          "type": "string[]"
        },
        {
          "internalType": "string[]",
          "name": "descriptions",
          "type": "string[]"
        },
        {
          "internalType": "uint256[]",
          "name": "voteCounts",
          "type": "uint256[]"
        },
        {
          "internalType": "bool[]",
          "name": "activeStates",
          "type": "bool[]"
        }
      ],
      "stateMutability": "view",
      "type": "function"
    },
    {
      "inputs": [],
      "name": "getTotalCandidateCount",
      "outputs": [
        {
          "internalType": "uint256",
          "name": "",
          "type": "uint256"
        }
      ],
      "stateMutability": "view",
      "type": "function"
    },
    {
      "inputs": [],
      "name": "getActiveElectionsCount",
      "outputs": [
        {
          "internalType": "uint256",
          "name": "",
          "type": "uint256"
        }
      ],
      "stateMutability": "view",
      "type": "function"
    }
  ],
  "bytecode": "0x608060405234801561001057600080fd5b50600580546001600160a01b03191633179055613347806100326000396000f3fe608060405234801561001057600080fd5b506004361061014d5760003560e01c806388e1c739116100c3578063d27a53721161007c578063d27a5372146102fd578063d3f7655b14610310578063d4f50f9814610318578063d5f035551461033b578063e6c62efc14610343578063f851a440146103565761014d565b806388e1c73914610278578063997d28301461028b5780639d710777146102a0578063a3ec138d146102b3578063b384abef146102d7578063cf4a6060146102ea5761014d565b80634bd46448116101155780634bd46448146101d657806350e2e8af146101f95780635e6fef0114610219578063740c47d41461023f5780637ad36e84146102525780637de14242146102655761014d565b806317b9b4aa146101525780632e6997fe1461016757806335bbe70e1461018a57806335f1fd9f146101a357806343859632146101c3575b600080fd5b61016561016036600461299a565b61035e565b005b61016f610431565b60405161018196959493929190612c21565b60405180910390f35b610192610acb565b604051610181959493929190612b82565b6101b66101b1366004612906565b610ff5565b6040516101819190612ca3565b6101b66101d1366004612906565b611045565b6101e96101e4366004612a15565b611065565b6040516101819493929190613152565b61020c6102073660046128ee565b61123b565b6040516101819190612b42565b61022c6102273660046128ee565b611265565b604051610181979695949392919061318f565b61016561024d3660046128ee565b6113b7565b61016561026036600461287e565b611450565b6101e9610273366004612a15565b6115ce565b6101656102863660046127c9565b61170e565b610293611967565b6040516101819190613149565b61022c6102ae3660046128ee565b61196d565b6102c66102c13660046127c9565b611b5f565b604051610181959493929190612cfb565b6101656102e5366004612a15565b611d33565b6101656102f8366004612a15565b611f15565b61016561030b3660046127ea565b612051565b61029361221e565b61032b6103263660046127c9565b61226d565b6040516101819493929190612cae565b6102936124a6565b610165610351366004612931565b6124e5565b61020c612646565b6005546001600160a01b031633146103915760405162461bcd60e51b815260040161038890613055565b60405180910390fd5b846000811180156103a457506004548111155b6103c05760405162461bcd60e51b815260040161038890612eda565b6000868152602081905260409020600381015442106103f15760405162461bcd60e51b815260040161038890612e01565b85516104069060018301906020890190612655565b50845161041c9060028301906020880190612655565b50600381019390935550600490910155505050565b60608080808080600060015b6004548111610476576000818152602081905260409020600601546104629083613260565b91508061046e816132ca565b91505061043d565b50806001600160401b0381111561049d57634e487b7160e01b600052604160045260246000fd5b6040519080825280602002602001820160405280156104c6578160200160208202803683370190505b509650806001600160401b038111156104ef57634e487b7160e01b600052604160045260246000fd5b604051908082528060200260200182016040528015610518578160200160208202803683370190505b509550806001600160401b0381111561054157634e487b7160e01b600052604160045260246000fd5b60405190808252806020026020018201604052801561057457816020015b606081526020019060019003908161055f5790505b509450806001600160401b0381111561059d57634e487b7160e01b600052604160045260246000fd5b6040519080825280602002602001820160405280156105d057816020015b60608152602001906001900390816105bb5790505b509350806001600160401b038111156105f957634e487b7160e01b600052604160045260246000fd5b604051908082528060200260200182016040528015610622578160200160208202803683370190505b509250806001600160401b0381111561064b57634e487b7160e01b600052604160045260246000fd5b604051908082528060200260200182016040528015610674578160200160208202803683370190505b509150600060015b6004548111610ac05760008060008381526020019081526020016000206040518060e0016040529081600082015481526020016001820180546106be9061328f565b80601f01602080910402602001604051908101604052809291908181526020018280546106ea9061328f565b80156107375780601f1061070c57610100808354040283529160200191610737565b820191906000526020600020905b81548152906001019060200180831161071a57829003601f168201915b505050505081526020016002820180546107509061328f565b80601f016020809104026020016040519081016040528092919081815260200182805461077c9061328f565b80156107c95780601f1061079e576101008083540402835291602001916107c9565b820191906000526020600020905b8154815290600101906020018083116107ac57829003601f168201915b50505091835250506003820154602082015260048201546040820152600582015460ff1615156060820152600690910154608090910152905060015b8160c001518111610aab576000838152600160208181526040808420858552825280842081516080810190925280548252928301805491939284019161084a9061328f565b80601f01602080910402602001604051908101604052809291908181526020018280546108769061328f565b80156108c35780601f10610898576101008083540402835291602001916108c3565b820191906000526020600020905b8154815290600101906020018083116108a657829003601f168201915b505050505081526020016002820180546108dc9061328f565b80601f01602080910402602001604051908101604052809291908181526020018280546109089061328f565b80156109555780601f1061092a57610100808354040283529160200191610955565b820191906000526020600020905b81548152906001019060200180831161093857829003601f168201915b505050505081526020016003820154815250509050838c868151811061098b57634e487b7160e01b600052603260045260246000fd5b602002602001018181525050818b86815181106109b857634e487b7160e01b600052603260045260246000fd5b60200260200101818152505080602001518a86815181106109e957634e487b7160e01b600052603260045260246000fd5b60200260200101819052508060400151898681518110610a1957634e487b7160e01b600052603260045260246000fd5b60200260200101819052508060600151888681518110610a4957634e487b7160e01b600052603260045260246000fd5b6020026020010181815250508260a00151878681518110610a7a57634e487b7160e01b600052603260045260246000fd5b9115156020928302919091019091015284610a94816132ca565b955050508080610aa3906132ca565b915050610805565b50508080610ab8906132ca565b91505061067c565b505050909192939495565b6006546060908190819081908190806001600160401b03811115610aff57634e487b7160e01b600052604160045260246000fd5b604051908082528060200260200182016040528015610b28578160200160208202803683370190505b509550806001600160401b03811115610b5157634e487b7160e01b600052604160045260246000fd5b604051908082528060200260200182016040528015610b8457816020015b6060815260200190600190039081610b6f5790505b509450806001600160401b03811115610bad57634e487b7160e01b600052604160045260246000fd5b604051908082528060200260200182016040528015610be057816020015b6060815260200190600190039081610bcb5790505b509350806001600160401b03811115610c0957634e487b7160e01b600052604160045260246000fd5b604051908082528060200260200182016040528015610c3c57816020015b6060815260200190600190039081610c275790505b509250806001600160401b03811115610c6557634e487b7160e01b600052604160045260246000fd5b604051908082528060200260200182016040528015610c8e578160200160208202803683370190505b50915060005b81811015610fec57600060068281548110610cbf57634e487b7160e01b600052603260045260246000fd5b60009182526020808320909101546001600160a01b031680835260029091526040808320815160a081019092528054929450909182908290610d009061328f565b80601f0160208091040260200160405190810160405280929190818152602001828054610d2c9061328f565b8015610d795780601f10610d4e57610100808354040283529160200191610d79565b820191906000526020600020905b815481529060010190602001808311610d5c57829003601f168201915b50505050508152602001600182018054610d929061328f565b80601f0160208091040260200160405190810160405280929190818152602001828054610dbe9061328f565b8015610e0b5780601f10610de057610100808354040283529160200191610e0b565b820191906000526020600020905b815481529060010190602001808311610dee57829003601f168201915b50505050508152602001600282018054610e249061328f565b80601f0160208091040260200160405190810160405280929190818152602001828054610e509061328f565b8015610e9d5780601f10610e7257610100808354040283529160200191610e9d565b820191906000526020600020905b815481529060010190602001808311610e8057829003601f168201915b50505091835250506003919091015460ff81161515602083015261010090046001600160a01b0316604090910152895190915082908a9085908110610ef257634e487b7160e01b600052603260045260246000fd5b60200260200101906001600160a01b031690816001600160a01b0316815250508060000151888481518110610f3757634e487b7160e01b600052603260045260246000fd5b60200260200101819052508060200151878481518110610f6757634e487b7160e01b600052603260045260246000fd5b60200260200101819052508060400151868481518110610f9757634e487b7160e01b600052603260045260246000fd5b60200260200101819052508060600151858481518110610fc757634e487b7160e01b600052603260045260246000fd5b9115156020928302919091019091015250819050610fe4816132ca565b915050610c94565b50509091929394565b60006004548311156110195760405162461bcd60e51b815260040161038890612eda565b5060009182526003602090815260408084206001600160a01b0393909316845291905290205460ff1690565b600360209081526000928352604080842090915290825290205460ff1681565b6000606080600060045486111561108e5760405162461bcd60e51b815260040161038890612eda565b6000868152602081905260409020600601548511156110bf5760405162461bcd60e51b815260040161038890612eaf565b600086815260016020818152604080842089855282528084208151608081019092528054825292830180549193928401916110f99061328f565b80601f01602080910402602001604051908101604052809291908181526020018280546111259061328f565b80156111725780601f1061114757610100808354040283529160200191611172565b820191906000526020600020905b81548152906001019060200180831161115557829003601f168201915b5050505050815260200160028201805461118b9061328f565b80601f01602080910402602001604051908101604052809291908181526020018280546111b79061328f565b80156112045780601f106111d957610100808354040283529160200191611204565b820191906000526020600020905b8154815290600101906020018083116111e757829003601f168201915b5050509183525050600391909101546020918201528151908201516040830151606090930151919a90995091975095509350505050565b6006818154811061124b57600080fd5b6000918252602090912001546001600160a01b0316905081565b600060208190529081526040902080546001820180549192916112879061328f565b80601f01602080910402602001604051908101604052809291908181526020018280546112b39061328f565b80156113005780601f106112d557610100808354040283529160200191611300565b820191906000526020600020905b8154815290600101906020018083116112e357829003601f168201915b5050505050908060020180546113159061328f565b80601f01602080910402602001604051908101604052809291908181526020018280546113419061328f565b801561138e5780601f106113635761010080835404028352916020019161138e565b820191906000526020600020905b81548152906001019060200180831161137157829003601f168201915b5050506003840154600485015460058601546006909601549495919490935060ff909116915087565b6005546001600160a01b031633146113e15760405162461bcd60e51b815260040161038890613055565b806000811180156113f457506004548111155b6114105760405162461bcd60e51b815260040161038890612eda565b6000828152602081905260409020600381015442106114415760405162461bcd60e51b8152600401610388906130fe565b600501805460ff191690555050565b6005546001600160a01b0316331461147a5760405162461bcd60e51b815260040161038890613055565b8082106114995760405162461bcd60e51b815260040161038890612fb6565b4282116114b85760405162461bcd60e51b815260040161038890613014565b600480549060006114c8836132ca565b90915550506040805160e08101825260045480825260208083018881528385018890526060840187905260808401869052600160a08501819052600060c0860181905293845283835294909220835181559151805193949293611532938501929190910190612655565b506040820151805161154e916002840191602090910190612655565b5060608201516003820155608082015160048083019190915560a083015160058301805460ff191691151591909117905560c090920151600690910155546040517fe7a0aae5d733e07e246dea86213a1ac1b0aa8554bde889bb75c12752f44e53d9916115c0918790869086906131e1565b60405180910390a150505050565b60016020818152600093845260408085209091529183529120805491810180546115f79061328f565b80601f01602080910402602001604051908101604052809291908181526020018280546116239061328f565b80156116705780601f1061164557610100808354040283529160200191611670565b820191906000526020600020905b81548152906001019060200180831161165357829003601f168201915b5050505050908060020180546116859061328f565b80601f01602080910402602001604051908101604052809291908181526020018280546116b19061328f565b80156116fe5780601f106116d3576101008083540402835291602001916116fe565b820191906000526020600020905b8154815290600101906020018083116116e157829003601f168201915b5050505050908060030154905084565b6005546001600160a01b031633146117385760405162461bcd60e51b815260040161038890613055565b6001600160a01b03811660009081526002602052604090206003015460ff166117735760405162461bcd60e51b815260040161038890613097565b60005b6006548110156118b457816001600160a01b0316600682815481106117ab57634e487b7160e01b600052603260045260246000fd5b6000918252602090912001546001600160a01b031614156118a257600680546117d690600190613278565b815481106117f457634e487b7160e01b600052603260045260246000fd5b600091825260209091200154600680546001600160a01b03909216918390811061182e57634e487b7160e01b600052603260045260246000fd5b9060005260206000200160006101000a8154816001600160a01b0302191690836001600160a01b03160217905550600680548061187b57634e487b7160e01b600052603160045260246000fd5b600082815260209020810160001990810180546001600160a01b03191690550190556118b4565b806118ac816132ca565b915050611776565b507fb899564762787ce77e1c3daf50221982caed2f56067b299766631f5eb026e80e60026000836001600160a01b03166001600160a01b0316815260200190815260200160002060010160405161190b9190612d57565b60405180910390a16001600160a01b03811660009081526002602052604081209061193682826126d9565b6119446001830160006126d9565b6119526002830160006126d9565b5060030180546001600160a81b031916905550565b60045481565b600060608060008060008060045488111561199a5760405162461bcd60e51b815260040161038890612eda565b60008060008a81526020019081526020016000206040518060e0016040529081600082015481526020016001820180546119d39061328f565b80601f01602080910402602001604051908101604052809291908181526020018280546119ff9061328f565b8015611a4c5780601f10611a2157610100808354040283529160200191611a4c565b820191906000526020600020905b815481529060010190602001808311611a2f57829003601f168201915b50505050508152602001600282018054611a659061328f565b80601f0160208091040260200160405190810160405280929190818152602001828054611a919061328f565b8015611ade5780601f10611ab357610100808354040283529160200191611ade565b820191906000526020600020905b815481529060010190602001808311611ac157829003601f168201915b5050505050815260200160038201548152602001600482015481526020016005820160009054906101000a900460ff161515151581526020016006820154815250509050806000015181602001518260400151836060015184608001518560a001518660c00151975097509750975097509750975050919395979092949650565b600260205260009081526040902080548190611b7a9061328f565b80601f0160208091040260200160405190810160405280929190818152602001828054611ba69061328f565b8015611bf35780601f10611bc857610100808354040283529160200191611bf3565b820191906000526020600020905b815481529060010190602001808311611bd657829003601f168201915b505050505090806001018054611c089061328f565b80601f0160208091040260200160405190810160405280929190818152602001828054611c349061328f565b8015611c815780601f10611c5657610100808354040283529160200191611c81565b820191906000526020600020905b815481529060010190602001808311611c6457829003601f168201915b505050505090806002018054611c969061328f565b80601f0160208091040260200160405190810160405280929190818152602001828054611cc29061328f565b8015611d0f5780601f10611ce457610100808354040283529160200191611d0f565b820191906000526020600020905b815481529060010190602001808311611cf257829003601f168201915b5050506003909301549192505060ff8116906001600160a01b036101009091041685565b600454821115611d555760405162461bcd60e51b815260040161038890612eda565b60008281526020819052604090206005015460ff16611d865760405162461bcd60e51b8152600401610388906130ce565b600082815260208190526040902060030154421015611db75760405162461bcd60e51b815260040161038890612e78565b600082815260208190526040902060040154421115611de85760405162461bcd60e51b815260040161038890612e4c565b3360009081526002602052604090206003015460ff16611e1a5760405162461bcd60e51b815260040161038890613097565b600082815260036020908152604080832033845290915290205460ff1615611e545760405162461bcd60e51b815260040161038890612f48565b600082815260208190526040902060060154811115611e855760405162461bcd60e51b815260040161038890612eaf565b60008281526001602090815260408083208484529091528120600301805491611ead836132ca565b9091555050600082815260036020908152604080832033808552925291829020805460ff1916600117905590517f7fe1d4e6b34e228b5dc059fcdc037c71b216fb2417f47c171e505144a5e4f5fc91611f09918591859161320d565b60405180910390a15050565b6005546001600160a01b03163314611f3f5760405162461bcd60e51b815260040161038890613055565b600454821115611f615760405162461bcd60e51b815260040161038890612eda565b600082815260208190526040902060060154811115611f925760405162461bcd60e51b815260040161038890612f7f565b60008281526020819052604090206005015460ff16611fc35760405162461bcd60e51b8152600401610388906130ce565b60408051602080820180845260008084528681526001808452858220878352909352939093209151611ffa93929091019190612655565b5060408051602080820180845260008084528681526001835284812086825290925292902090516120319260029092019190612655565b506000918252600160209081526040808420928452919052812060030155565b6005546001600160a01b0316331461207b5760405162461bcd60e51b815260040161038890613055565b6001600160a01b03811660009081526002602052604090206003015460ff16156120b75760405162461bcd60e51b815260040161038890612f11565b6001600160a01b0381166120dd5760405162461bcd60e51b815260040161038890612fe5565b6040805160a0810182528581526020808201869052818301859052600160608301526001600160a01b038416608083018190526000908152600282529290922081518051929391926121329284920190612655565b50602082810151805161214b9260018501920190612655565b5060408201518051612167916002840191602090910190612655565b506060820151600391909101805460809093015160ff1990931691151591909117610100600160a81b0319166101006001600160a01b0393841602179055600680546001810182556000919091527ff652222313e28459528d920b65115c16c04f3efc82aaedc97be59f3f377c0d3f0180546001600160a01b0319169183169190911790556040517fffeb7702be7dcd8fee170d954b70afb9a7c78f7f5cff232d037e7b9d8243356a906115c09083908690612b56565b60008060015b60045481116122675760008181526020819052604090206005015460ff16156122555781612251816132ca565b9250505b8061225f816132ca565b915050612224565b50905090565b606080606060008060026000876001600160a01b03166001600160a01b031681526020019081526020016000206040518060a00160405290816000820180546122b59061328f565b80601f01602080910402602001604051908101604052809291908181526020018280546122e19061328f565b801561232e5780601f106123035761010080835404028352916020019161232e565b820191906000526020600020905b81548152906001019060200180831161231157829003601f168201915b505050505081526020016001820180546123479061328f565b80601f01602080910402602001604051908101604052809291908181526020018280546123739061328f565b80156123c05780601f10612395576101008083540402835291602001916123c0565b820191906000526020600020905b8154815290600101906020018083116123a357829003601f168201915b505050505081526020016002820180546123d99061328f565b80601f01602080910402602001604051908101604052809291908181526020018280546124059061328f565b80156124525780601f1061242757610100808354040283529160200191612452565b820191906000526020600020905b81548152906001019060200180831161243557829003601f168201915b50505091835250506003919091015460ff811615156020808401919091526101009091046001600160a01b031660409283015282519083015191830151606090930151909991985091965090945092505050565b60008060015b6004548111612267576000818152602081905260409020600601546124d19083613260565b9150806124dd816132ca565b9150506124ac565b6005546001600160a01b0316331461250f5760405162461bcd60e51b815260040161038890613055565b6004548311156125315760405162461bcd60e51b815260040161038890612eda565b60008381526020819052604090206005015460ff166125625760405162461bcd60e51b8152600401610388906130ce565b60008381526020819052604081206006015461257f906001613260565b604080516080810182528281526020808201878152828401879052600060608401819052898152600180845285822087835284529490208351815590518051959650929490936125d493908501920190612655565b50604082015180516125f0916002840191602090910190612655565b506060919091015160039091015560008481526020819052604090819020600601829055517fed8911b3df733b7d5f75724158e54478ea12e30f49c9d31b5261879f5b76586f906115c09086908490879061322c565b6005546001600160a01b031681565b8280546126619061328f565b90600052602060002090601f01602090048101928261268357600085556126c9565b82601f1061269c57805160ff19168380011785556126c9565b828001600101855582156126c9579182015b828111156126c95782518255916020019190600101906126ae565b506126d5929150612718565b5090565b5080546126e59061328f565b6000825580601f106126f75750612715565b601f0160209004906000526020600020908101906127159190612718565b50565b5b808211156126d55760008155600101612719565b80356001600160a01b038116811461274457600080fd5b919050565b600082601f830112612759578081fd5b81356001600160401b0380821115612773576127736132fb565b604051601f8301601f191681016020018281118282101715612797576127976132fb565b6040528281528483016020018610156127ae578384fd5b82602086016020830137918201602001929092529392505050565b6000602082840312156127da578081fd5b6127e38261272d565b9392505050565b600080600080608085870312156127ff578283fd5b84356001600160401b0380821115612815578485fd5b61282188838901612749565b95506020870135915080821115612836578485fd5b61284288838901612749565b94506040870135915080821115612857578384fd5b5061286487828801612749565b9250506128736060860161272d565b905092959194509250565b60008060008060808587031215612893578384fd5b84356001600160401b03808211156128a9578586fd5b6128b588838901612749565b955060208701359150808211156128ca578485fd5b506128d787828801612749565b949794965050505060408301359260600135919050565b6000602082840312156128ff578081fd5b5035919050565b60008060408385031215612918578182fd5b823591506129286020840161272d565b90509250929050565b600080600060608486031215612945578283fd5b8335925060208401356001600160401b0380821115612962578384fd5b61296e87838801612749565b93506040860135915080821115612983578283fd5b5061299086828701612749565b9150509250925092565b600080600080600060a086880312156129b1578081fd5b8535945060208601356001600160401b03808211156129ce578283fd5b6129da89838a01612749565b955060408801359150808211156129ef578283fd5b506129fc88828901612749565b9598949750949560608101359550608001359392505050565b60008060408385031215612a27578182fd5b50508035926020909101359150565b6000815180845260208085019450808401835b83811015612a67578151151587529582019590820190600101612a49565b509495945050505050565b60008282518085526020808601955080818302840101818601855b84811015612abb57601f19868403018952612aa9838351612af7565b98840198925090830190600101612a8d565b5090979650505050505050565b6000815180845260208085019450808401835b83811015612a6757815187529582019590820190600101612adb565b60008151808452815b81811015612b1c57602081850181015186830182015201612b00565b81811115612b2d5782602083870101525b50601f01601f19169290920160200192915050565b6001600160a01b0391909116815260200190565b6001600160a01b0383168152604060208201819052600090612b7a90830184612af7565b949350505050565b60a0808252865190820181905260009060209060c0840190828a01845b82811015612bc45781516001600160a01b031684529284019290840190600101612b9f565b50505083810382850152612bd88189612a72565b9150508281036040840152612bed8187612a72565b90508281036060840152612c018186612a72565b90508281036080840152612c158185612a36565b98975050505050505050565b600060c08252612c3460c0830189612ac8565b8281036020840152612c468189612ac8565b90508281036040840152612c5a8188612a72565b90508281036060840152612c6e8187612a72565b90508281036080840152612c828186612ac8565b905082810360a0840152612c968185612a36565b9998505050505050505050565b901515815260200190565b600060808252612cc16080830187612af7565b8281036020840152612cd38187612af7565b90508281036040840152612ce78186612af7565b915050821515606083015295945050505050565b600060a08252612d0e60a0830188612af7565b8281036020840152612d208188612af7565b90508281036040840152612d348187612af7565b941515606084015250506001600160a01b03919091166080909101529392505050565b6000602080835281845483600282049050600180831680612d7957607f831692505b858310811415612d9757634e487b7160e01b87526022600452602487fd5b612da383878a01613149565b818015612db75760018114612dc857612df2565b60ff19861682528782019650612df2565b612dd18b613254565b895b86811015612dec57815484820152908501908901612dd3565b83019750505b50949998505050505050505050565b6020808252602b908201527f43616e6e6f74206d6f64696679206f6e676f696e67206f7220636f6d706c657460408201526a32b21032b632b1ba34b7b760a91b606082015260800190565b602080825260129082015271115b1958dd1a5bdb881a185cc8195b99195960721b604082015260600190565b60208082526018908201527f456c656374696f6e20686173206e6f7420737461727465640000000000000000604082015260600190565b602080825260119082015270496e76616c69642063616e64696461746560781b604082015260600190565b60208082526017908201527f456c656374696f6e20646f6573206e6f74206578697374000000000000000000604082015260600190565b60208082526018908201527f566f74657220616c726561647920726567697374657265640000000000000000604082015260600190565b6020808252601e908201527f416c726561647920766f74656420696e207468697320656c656374696f6e0000604082015260600190565b60208082526018908201527f43616e64696461746520646f6573206e6f742065786973740000000000000000604082015260600190565b602080825260159082015274496e76616c696420656c656374696f6e2074696d6560581b604082015260600190565b602080825260159082015274496e76616c696420766f746572206164647265737360581b604082015260600190565b60208082526021908201527f456c656374696f6e206d75737420737461727420696e207468652066757475726040820152606560f81b606082015260800190565b60208082526022908201527f4f6e6c792061646d696e2063616e20706572666f726d2074686973206163746960408201526137b760f11b606082015260800190565b60208082526017908201527f566f746572206973206e6f742072656769737465726564000000000000000000604082015260600190565b602080825260169082015275456c656374696f6e206973206e6f742061637469766560501b604082015260600190565b6020808252602b908201527f43616e6e6f742064656c657465206f6e676f696e67206f7220636f6d706c657460408201526a32b21032b632b1ba34b7b760a91b606082015260800190565b90815260200190565b60008582526080602083015261316b6080830186612af7565b828103604084015261317d8186612af7565b91505082606083015295945050505050565b600088825260e060208301526131a860e0830189612af7565b82810360408401526131ba8189612af7565b60608401979097525050608081019390935290151560a083015260c0909101529392505050565b6000858252608060208301526131fa6080830186612af7565b6040830194909452506060015292915050565b92835260208301919091526001600160a01b0316604082015260600190565b60008482528360208301526060604083015261324b6060830184612af7565b95945050505050565b60009081526020902090565b60008219821115613273576132736132e5565b500190565b60008282101561328a5761328a6132e5565b500390565b6002810460018216806132a357607f821691505b602082108114156132c457634e487b7160e01b600052602260045260246000fd5b50919050565b60006000198214156132de576132de6132e5565b5060010190565b634e487b7160e01b600052601160045260246000fd5b634e487b7160e01b600052604160045260246000fdfea26469706673582212206dd776c7ecf79aaf40ea976ddc1b2215dd108a5e0e9d69d8e4d3e94954401ac364736f6c63430008000033",
  "immutableReferences": {},
  "source": "// SPDX-License-Identifier: MIT\npragma solidity ^0.8.0;\n\ncontract Election {\n    struct Candidate {\n        uint256 id;\n        string name;\n        string description;\n        uint256 voteCount;\n    }\n\n    struct Voter {\n        string name;\n        string voterId;\n        string email;\n        bool isRegistered;\n        address voterAddress;\n    }\n\n    struct ElectionData {\n        uint256 id;\n        string name;\n        string description;\n        uint256 startTime;\n        uint256 endTime;\n        bool isActive;\n        uint256 candidateCount;\n    }\n\n    mapping(uint256 => ElectionData) public elections;\n    mapping(uint256 => mapping(uint256 => Candidate)) public candidates;\n    mapping(address => Voter) public voters;\n    mapping(uint256 => mapping(address => bool)) public hasVoted;\n    \n    uint256 public electionCount;\n    address public admin;\n    address[] public voterList; // New array to track voter addresses\n\n    event ElectionCreated(uint256 electionId, string name, uint256 startTime, uint256 endTime);\n    event CandidateAdded(uint256 electionId, uint256 candidateId, string name);\n    event VoterRegistered(address voterAddress, string voterId);\n    event VoteCast(uint256 electionId, uint256 candidateId, address voter);\n    event VoterRemoved(string voterId);\n\n    modifier onlyAdmin() {\n        require(msg.sender == admin, \"Only admin can perform this action\");\n        _;\n    }\n\n    modifier electionExists(uint256 _electionId) {\n        require(_electionId > 0 && _electionId <= electionCount, \"Election does not exist\");\n        _;\n    }\n\n    constructor() {\n        admin = msg.sender;\n    }\n\n    function createElection(\n        string memory _name,\n        string memory _description,\n        uint256 _startTime,\n        uint256 _endTime\n    ) public onlyAdmin {\n        require(_startTime < _endTime, \"Invalid election time\");\n        require(_startTime > block.timestamp, \"Election must start in the future\");\n\n        electionCount++;\n        elections[electionCount] = ElectionData({\n            id: electionCount,\n            name: _name,\n            description: _description,\n            startTime: _startTime,\n            endTime: _endTime,\n            isActive: true,\n            candidateCount: 0\n        });\n\n        emit ElectionCreated(electionCount, _name, _startTime, _endTime);\n    }\n\n    function addCandidate(\n        uint256 _electionId,\n        string memory _name,\n        string memory _description\n    ) public onlyAdmin {\n        require(_electionId <= electionCount, \"Election does not exist\");\n        require(elections[_electionId].isActive, \"Election is not active\");\n\n        uint256 candidateId = elections[_electionId].candidateCount + 1;\n        candidates[_electionId][candidateId] = Candidate({\n            id: candidateId,\n            name: _name,\n            description: _description,\n            voteCount: 0\n        });\n\n        elections[_electionId].candidateCount = candidateId;\n        emit CandidateAdded(_electionId, candidateId, _name);\n    }\n\n    function registerVoter(\n        string memory _name,\n        string memory _voterId,\n        string memory _email,\n        address _voterAddress\n    ) public onlyAdmin {\n        require(!voters[_voterAddress].isRegistered, \"Voter already registered\");\n        require(_voterAddress != address(0), \"Invalid voter address\");\n        \n        voters[_voterAddress] = Voter({\n            name: _name,\n            voterId: _voterId,\n            email: _email,\n            isRegistered: true,\n            voterAddress: _voterAddress\n        });\n\n        voterList.push(_voterAddress); // Add to voter list\n        emit VoterRegistered(_voterAddress, _voterId);\n    }\n\n    function vote(uint256 _electionId, uint256 _candidateId) public {\n        require(_electionId <= electionCount, \"Election does not exist\");\n        require(elections[_electionId].isActive, \"Election is not active\");\n        require(block.timestamp >= elections[_electionId].startTime, \"Election has not started\");\n        require(block.timestamp <= elections[_electionId].endTime, \"Election has ended\");\n        require(voters[msg.sender].isRegistered, \"Voter is not registered\");\n        require(!hasVoted[_electionId][msg.sender], \"Already voted in this election\");\n        require(_candidateId <= elections[_electionId].candidateCount, \"Invalid candidate\");\n\n        candidates[_electionId][_candidateId].voteCount++;\n        hasVoted[_electionId][msg.sender] = true;\n\n        emit VoteCast(_electionId, _candidateId, msg.sender);\n    }\n\n    function modifyElection(\n        uint256 _electionId,\n        string memory _name,\n        string memory _description,\n        uint256 _startTime,\n        uint256 _endTime\n    ) public onlyAdmin electionExists(_electionId) {\n        ElectionData storage election = elections[_electionId];\n        require(block.timestamp < election.startTime, \"Cannot modify ongoing or completed election\");\n        \n        election.name = _name;\n        election.description = _description;\n        election.startTime = _startTime;\n        election.endTime = _endTime;\n    }\n\n    function deleteElection(uint256 _electionId) \n        public \n        onlyAdmin \n        electionExists(_electionId) \n    {\n        ElectionData storage election = elections[_electionId];\n        require(block.timestamp < election.startTime, \"Cannot delete ongoing or completed election\");\n        \n        election.isActive = false;\n    }\n\n    function deleteCandidate(uint256 _electionId, uint256 _candidateId) public onlyAdmin {\n        require(_electionId <= electionCount, \"Election does not exist\");\n        require(_candidateId <= elections[_electionId].candidateCount, \"Candidate does not exist\");\n        require(elections[_electionId].isActive, \"Election is not active\");\n        \n        // Set the candidate's name to empty to mark as deleted\n        candidates[_electionId][_candidateId].name = \"\";\n        candidates[_electionId][_candidateId].description = \"\";\n        candidates[_electionId][_candidateId].voteCount = 0;\n    }\n\n    function deleteVoter(address _voterAddress) public onlyAdmin {\n        require(voters[_voterAddress].isRegistered, \"Voter is not registered\");\n        \n        // Remove from voterList\n        for (uint i = 0; i < voterList.length; i++) {\n            if (voterList[i] == _voterAddress) {\n                voterList[i] = voterList[voterList.length - 1];\n                voterList.pop();\n                break;\n            }\n        }\n        \n        emit VoterRemoved(voters[_voterAddress].voterId);\n        delete voters[_voterAddress];\n    }\n\n    // Function to get all registered voters\n    function getAllVoters() public view returns (\n        address[] memory voterAddresses,\n        string[] memory names,\n        string[] memory voterIds,\n        string[] memory emails,\n        bool[] memory isRegistered\n    ) {\n        uint256 totalVoters = voterList.length;\n        \n        voterAddresses = new address[](totalVoters);\n        names = new string[](totalVoters);\n        voterIds = new string[](totalVoters);\n        emails = new string[](totalVoters);\n        isRegistered = new bool[](totalVoters);\n\n        for (uint256 i = 0; i < totalVoters; i++) {\n            address voterAddr = voterList[i];\n            Voter memory voter = voters[voterAddr];\n            \n            voterAddresses[i] = voterAddr;\n            names[i] = voter.name;\n            voterIds[i] = voter.voterId;\n            emails[i] = voter.email;\n            isRegistered[i] = voter.isRegistered;\n        }\n\n        return (voterAddresses, names, voterIds, emails, isRegistered);\n    }\n\n    // View functions\n    function getElection(uint256 _electionId) public view returns (\n        uint256 id,\n        string memory name,\n        string memory description,\n        uint256 startTime,\n        uint256 endTime,\n        bool isActive,\n        uint256 candidateCount\n    ) {\n        require(_electionId <= electionCount, \"Election does not exist\");\n        ElectionData memory election = elections[_electionId];\n        return (\n            election.id,\n            election.name,\n            election.description,\n            election.startTime,\n            election.endTime,\n            election.isActive,\n            election.candidateCount\n        );\n    }\n\n    function getCandidate(uint256 _electionId, uint256 _candidateId) public view returns (\n        uint256 id,\n        string memory name,\n        string memory description,\n        uint256 voteCount\n    ) {\n        require(_electionId <= electionCount, \"Election does not exist\");\n        require(_candidateId <= elections[_electionId].candidateCount, \"Invalid candidate\");\n        Candidate memory candidate = candidates[_electionId][_candidateId];\n        return (\n            candidate.id,\n            candidate.name,\n            candidate.description,\n            candidate.voteCount\n        );\n    }\n\n    function getVoter(address _voterAddress) public view returns (\n        string memory name,\n        string memory voterId,\n        string memory email,\n        bool isRegistered\n    ) {\n        Voter memory voter = voters[_voterAddress];\n        return (\n            voter.name,\n            voter.voterId,\n            voter.email,\n            voter.isRegistered\n        );\n    }\n\n    function checkVoterVoteStatus(uint256 _electionId, address _voterAddress) public view returns (bool) {\n        require(_electionId <= electionCount, \"Election does not exist\");\n        return hasVoted[_electionId][_voterAddress];\n    }\n\n    // Function to get all candidates across all elections\n    function getAllCandidates() public view returns (\n        uint256[] memory electionIds,\n        uint256[] memory candidateIds,\n        string[] memory names,\n        string[] memory descriptions,\n        uint256[] memory voteCounts,\n        bool[] memory activeStates\n    ) {\n        // Calculate total number of candidates\n        uint256 totalCandidates = 0;\n        for (uint256 i = 1; i <= electionCount; i++) {\n            totalCandidates += elections[i].candidateCount;\n        }\n\n        // Initialize arrays with the total size\n        electionIds = new uint256[](totalCandidates);\n        candidateIds = new uint256[](totalCandidates);\n        names = new string[](totalCandidates);\n        descriptions = new string[](totalCandidates);\n        voteCounts = new uint256[](totalCandidates);\n        activeStates = new bool[](totalCandidates);\n\n        // Fill arrays with candidate data\n        uint256 currentIndex = 0;\n        for (uint256 electionId = 1; electionId <= electionCount; electionId++) {\n            ElectionData memory election = elections[electionId];\n            for (uint256 candidateId = 1; candidateId <= election.candidateCount; candidateId++) {\n                Candidate memory candidate = candidates[electionId][candidateId];\n                electionIds[currentIndex] = electionId;\n                candidateIds[currentIndex] = candidateId;\n                names[currentIndex] = candidate.name;\n                descriptions[currentIndex] = candidate.description;\n                voteCounts[currentIndex] = candidate.voteCount;\n                activeStates[currentIndex] = election.isActive;\n                currentIndex++;\n            }\n        }\n        return (electionIds, candidateIds, names, descriptions, voteCounts, activeStates);\n    }\n\n    // Function to get total candidate count across all elections\n    function getTotalCandidateCount() public view returns (uint256) {\n        uint256 totalCandidates = 0;\n        for (uint256 i = 1; i <= electionCount; i++) {\n            totalCandidates += elections[i].candidateCount;\n        }\n        return totalCandidates;\n    }\n\n    // Function to get total active elections count\n    function getActiveElectionsCount() public view returns (uint256) {\n        uint256 activeCount = 0;\n        for (uint256 i = 1; i <= electionCount; i++) {\n            if (elections[i].isActive) {\n                activeCount++;\n            }\n        }\n        return activeCount;\n    }\n}\n",
  "sourcePath": "C:\\Users\\LENOVO\\OneDrive\\Desktop\\SecureVote-main1.2222\\SecureVote-main\\contracts\\Election.sol",
  "compiler": {
    "name": "solc",
    "version": "0.8.0+commit.c7dfd78e.Emscripten.clang"
  },
  "schemaVersion": "3.4.16",
  "updatedAt": "2025-06-08T15:52:56.307Z",
  "devdoc": {
    "kind": "dev",
    "methods": {},
    "version": 1
  },
  "userdoc": {
    "kind": "user",
    "methods": {},
    "version": 1
  }
}